:10000000A1C0C5C02DC6C3C0C2C0B3C6C0C0BFC09A
:10001000BEC0BDC0BCC0BBC07FC3B9C0B8C0005E5D
:10002000BCE2613FDD83C29C7E20A3FD1F419DC3D6
:10003000217FFCA2401E5F01E3BD3E6082DC237D88
:100040009FC1421CFEA0E1BF5D0380DE3C62BEE0BA
:10005000025CDF81633D7C22C09E1D43A1FF4618E8
:10006000FAA427799BC584DA3866E5BB5907DB8596
:100070006739BAE406581947A5FB7826C49A653B48
:10008000D987045AB8E6A7F91B45C6987A24F8A67A
:10009000441A99C7257B3A6486D85B05E7B98CD2A8
:1000A000306EEDB3510F4E10F2AC2F7193CD114F56
:1000B000ADF3702ECC92D38D6F31B2EC0E50AFF108
:1000C000134DCE90722C6D33D18F0C52B0EE326C3A
:1000D0008ED0530DEFB1F0AE4C1291CF2D73CA9468
:1000E0007628ABF517490856B4EA6937D58B570916
:1000F000EBB536688AD495CB2977F4AA4816E9B7C8
:10010000550B88D6346A2B7597C94A14F6A8742AF9
:10011000C896154BA9F7B6E80A54D7896B35010282
:100120000000040001020408102002020202020280
:100130000000000036000000000038000000000051
:100140003700290211241FBECFE5D2E0DEBFCDBFAC
:1001500010E0A0E6B0E0EEE2FAE102C005900D92F8
:10016000A037B107D9F721E0A0E7B0E001C01D92A8
:10017000AF34B207E1F711E0C4E4D1E003C0229745
:10018000FE018ED9C234D107D1F75AD74ECC38CF21
:1001900080E580939C0061E083E0C0D660E083E06E
:1001A00007D768EE73E080E090E052C68CE087B934
:1001B00062E070E080E090E04BD6369A3699FECF50
:1001C00024B185B130E0382B442737FD4095542FBA
:1001D00064EB7BE281E190E031D9CA01B901089575
:1001E000CF92DF92EF92FF920F931F93CF93DF9303
:1001F000CDB7DEB7A2970FB6F894DEBF0FBECDBF66
:10020000CD8ADE8AEF8AF88E098F1A8F2B8F3C8F6A
:100210004D8F5E8F6F8F78A389A39AA341E0BE01B3
:10022000635F7F4FCE01459678D4811109C0CE011E
:10023000459640D46AEF70E080E090E009D67FC038
:1002400067E0CE010D9600D59C89891378C08D8515
:10025000823241F0883231F0803109F070C0DD2403
:10026000D39401C0D12CCE0145960FD3BE01635F5C
:100270007F4FCE014596F8D341E064E4CE01459628
:1002800097D368EE73E080E090E0E2D5CE0145962A
:10029000FCD2BE01635F7F4FCE014596E5D340E0BF
:1002A0006EEBCE01459684D38E010F5F1F4F7E010A
:1002B0008AE0E80EF11CCE014596BBD3F80181938C
:1002C0008F01EE15FF05B9F76A8170E0762F66277A
:1002D0008981682BDD2089F083E0660F771F8A957E
:1002E000E1F788858031A9F42F818CE090E0821BB2
:1002F0009109607F680F791F0CC08D81807611F4A1
:10030000687F07C0803211F46C7F03C0803409F429
:100310006E7F882777FD8095982F33D720E030E0D7
:1003200040E85DE3DED77B018C019B01AC0144D842
:1003300081110AC05E2D4F2D302F212F09C05DEC99
:100340004CEC34E421E404C05DEC4CEC37EC22ECE2
:10035000652F742F832F922FA2960FB6F894DEBFCD
:100360000FBECDBFDF91CF911F910F91FF90EF9006
:10037000DF90CF900895CF92DF92EF92FF920F938C
:100380001F9361E084E990E06CD080B58E7F80BDE2
:1003900064EF71E080E090E05BD508DF609370006F
:1003A000709371008093720090937300EAD620E0FE
:1003B00030E04AE754E44AD66093740070937500C5
:1003C0008093760090937700C0907800D090790069
:1003D000E0907A00F0907B0000917C0010917D000D
:1003E00020917E0030917F004091800050918100EB
:1003F00060918200709183008091840090918500CB
:10040000EFDE20E520939C006093940070939500AC
:10041000809396009093970084E990E05FD161E02B
:1004200070E084E990E062D160E080E077D560E040
:1004300084E990E016D080B5816080BD63E070E013
:1004400081E091E01F910F91FF90EF90DF90CF90AE
:1004500003C260E086E890E03FD360E088E790E088
:100460003BC383E05BC561E083E0A2D580916A0075
:1004700090916B0012D560E083E09AD58091660080
:10048000909167000AC561E083E092D58091680091
:100490009091690002D560E083E08AD58091660082
:1004A00090916700FAC41092A8001092A7002AE069
:1004B00030E03093A6002093A500FC016085E62F74
:1004C000E695E695E695F0E0F093A200E093A100B2
:1004D000677070E04091AF005091B0002091AD0086
:1004E0003091AE00A091AB00B091AC00CF01860F6F
:1004F000971F840F951F820F931F8A0F9B1F840FD6
:10050000951F820F931F8170992790939E0080936F
:100510009D00660F771F680F791F7093A00060938E
:100520009F008091A3009091A4000A968E0F9F1FB8
:10053000860F971F840F951F820F931F8A0F9B1F93
:10054000840F951F820F931F8F7099279093AA0095
:100550008093A90008950F931F93CF93DF93EC012D
:10056000162F072F63FF02C08EDF01C07CDFCE0194
:1005700012FF02C088DF01C076DFCE0111FF02C08A
:1005800082DF01C070DFCE0110FF02C07CDF01C03E
:100590006ADF0F931F938CE690E09F938F9381EB1C
:1005A00090E09F938F9380D70F900F900F900F90B4
:1005B0000F900F90DF91CF911F910F9108950F939E
:1005C0001F93CF93DF93EC016EDF03E010E06091A7
:1005D000A7007091A800CE01BEDF6091A5007091C8
:1005E000A600CE01B8DF6091A3007091A400CE01F7
:1005F000B2DF6091A1007091A200CE01ACDF6091EA
:100600009F007091A000CE01A6DF6091AF007091B5
:10061000B000CE01A0DF6091AD007091AE00CE01C0
:100620009ADF6091AB007091AC00CE0194DF6091D5
:10063000AF007091B000CE018EDF6091AD0070917F
:10064000AE00CE0188DF6091A9007091AA00CE01B2
:1006500082DF64E170E080E090E0FAD3015011099C
:1006600009F0B5CFDF91CF911F910F910895CF92EF
:10067000DF92EF92FF92CF93DF93FC01C080D18095
:10068000E280F380C701B60149D5CAE0D0E0CB01D2
:10069000BE019FD66B5F7F4F7093B0006093AF0039
:1006A0009093AE008093AD0020E030E040E251E452
:1006B000C701B60116D632D5CB01BE018AD69093BA
:1006C000AC008093AB001092A4001092A300DF91C5
:1006D000CF91FF90EF90DF90CF900895CF93DF936D
:1006E000EC01C5DFCE01DF91CF9169CF0F931F934E
:1006F000CF93DF938B01C0E0D0E0C017D1073CF46B
:1007000068EE73E080E090E0A3D32196F6CFDF910E
:10071000CF911F910F9108951F920F920FB60F92D4
:1007200011248F9388E10FB6F89481BD11BC0FBEE0
:10073000A89581B58F7B81BD8F910F900FBE0F90D3
:100740001F90189563FF02C088E201C088E06770BF
:10075000682B88E190E00FB6F894A89581BD0FBE94
:1007600061BDA89581B5806481BD379885B7877EC6
:10077000806185BF85B7806285BF889585B78F7D8D
:1007800085BF88E10FB6F89481BD11BC0FBE379AC2
:1007900081B58F7B81BD08950F931F93CF93DF9316
:1007A0008C01EB01C0348FE1D80730F069E0C8015B
:1007B000C9DFC054DF41F6CFC03A8FE0D80728F038
:1007C00068E0C801BFDFC05ADF40C03D87E0D807FE
:1007D00028F067E0C801B6DFC05DD740C83E83E0BF
:1007E000D80728F066E0C801ADDFC85ED340C43F3B
:1007F00081E0D80728F065E0C801A4DFC45FD140DC
:10080000CA3FD10528F064E0C8019CDFCA5FD10966
:10081000CD37D10528F063E0C80194DFC857D1096E
:10082000C034D10520F062E0C8018CDFEC97C03203
:10083000D10520F061E0C80185DF6E97609738F040
:1008400060E0C801DF91CF911F910F917BCFDF91C5
:10085000CF911F910F9108950F931F93CF93DF9323
:10086000EB01CC0FDD1F00E010E00C171D0744F476
:1008700060E375E781E091E08FDF0F5F1F4FF5CFF9
:10088000DF91CF911F910F910895FF920F931F93C6
:10089000CF93DF93FC010081C181D281F8948981DB
:1008A000F02EF0948F21898378941DE7115009F17F
:1008B00082E090E0F2D288818023C1F3F8948A81AB
:1008C0008F218A838981802B8983789480EE91E0BF
:1008D000E4D2F89489818F21898386E490E0DDD287
:1008E0008881802311E009F010E078948AE991E092
:1008F000D4D2812FDF91CF911F910F91FF90089556
:100900001F93CF93DF93FC011081C181D281912F7E
:10091000909560FF11C0F8948A8189238A83898128
:10092000812B89838AE090E0B8D28A81812B8A83E7
:10093000789487E390E010C0F8948A8189238A83B1
:100940008981812B898381E490E0A7D28A81812BE0
:100950008A83789485E090E0DF91CF911F919DC2CA
:100960000F931F93CF93DF93FC011081C181D2813C
:10097000F8948981812B89838A81012F00958023B6
:100980008A8383E090E089D28981802389838AE009
:1009900090E083D2C881789485E390E07ED21C23D6
:1009A00081E009F480E0DF91CF911F910F910895CC
:1009B000CF92DF92EF92FF920F931F93CF93DF932B
:1009C0001F92CDB7DEB76C01E62E08E010E0FF24E1
:1009D000F39461E09F2D9E2109F460E0C6014983F4
:1009E0008FDFFF0C0150110949810115110589F7AD
:1009F000411115C0F894D6011196ED91FC91129712
:100A000091818C918095892381831196ED91FC9140
:100A1000129792818C9180958923828378940F908C
:100A2000DF91CF911F910F91FF90EF90DF90CF90CA
:100A30000895EF92FF920F931F93CF93DF938C0152
:100A4000C8E0D0E0F12CEE24E394C80189DF8111E5
:100A5000FE28EE0C2197C9F78F2DDF91CF911F91C2
:100A60000F91FF90EF900895CF92DF92FF920F9336
:100A70001F93CF93DF931F92CDB7DEB78C01F62E75
:100A800040E065E5798394DFCF2C7981D72E88E02B
:100A9000F82EF60161916F0140E0C80189DFFA94F8
:100AA000C1F70F90DF91CF911F910F91FF90DF90D1
:100AB000CF900895FC0113861586148627E030E058
:100AC000DF01A20FB31F13961C922115310519F0F7
:100AD00021503109F5CF08951F93CF93DF93EC0197
:100AE000162F60E0812F1AD2612F70E0FB01EC5DC0
:100AF000FE4FE491E883FB01E65DFE4FE491F0E0F8
:100B0000EE0FFF1FE05DFE4F859194919A838983DC
:100B1000CE01DF91CF911F91CDCFAF92BF92CF92F7
:100B2000DF92EF92FF920F931F93CF93DF931F9269
:100B3000CDB7DEB75C01D62EE72EFC01858581118D
:100B40005EC0C5014983A1DE4981811105C0F5015F
:100B50001386158614866CC0442319F040E060EFBC
:100B600002C040E06CEEC50123DF01E0F12CC12C96
:100B700011E0C501F5DE682FC5016983F1DE6981E9
:100B8000613019F48130B9F431C02F2D30E0681391
:100B90001BC0F5018385181730F4E20FF31F838122
:100BA000802349F402C0181731F060E0193058F47E
:100BB000F501148708C0F501EF0DF11D8381802B2D
:100BC000838361E009C0C12EF501E20FF31F838129
:100BD000902F909589238383C50192DE1F5F000FBC
:100BE00011F4F39401E0F7E0FF1518F6113438F032
:100BF000F501C386C11009C081E0858706C0F501F3
:100C000013861586148680E013C0F501838188233E
:100C1000B1F3ED2DFE2D80E090E0D501A80FB91FB6
:100C200013962C912193019688309105B1F781E0BC
:100C30000F90DF91CF911F910F91FF90EF90DF9078
:100C4000CF90BF90AF900895DC0180E0615038F004
:100C5000ED91E827F0E0E25EFF4F8491F7CF089531
:100C60001F920F920FB60F9211242F933F934F9321
:100C70005F936F937F938F939F93AF93BF93EF9304
:100C8000FF93E0914401F0914501309709F451C080
:100C9000868DA685B785958581FF04C08C918923B3
:100CA00029F447C08C91892309F043C0A389B489F2
:100CB0009C918589809589238C9386899789019752
:100CC000F1F7208D318DA685B785758558E040E018
:100CD000C9010197F1F7842F90E095958795482FEA
:100CE0006C91672309F04068515091F7868D81FD22
:100CF00040958091030190E001968F739927209190
:100D00000201281749F0A0910301B0E0AC5FBE4F8B
:100D10004C938093030103C0868D8160868F828D02
:100D2000938D0197F1F7A389B4898C919589892BCB
:100D30008C93FF91EF91BF91AF919F918F917F9194
:100D40006F915F914F913F912F910F900FBE0F9038
:100D50001F90189580B7807F80BF80B7806880BF64
:100D60008CB580648CBD8FEF8DBD80B7876080BFF0
:100D700008951F920F920FB60F9211242F933F9355
:100D80008F939F93AF93BF938091470190914801B8
:100D9000A0914901B0914A013091460126E0230F0C
:100DA0002D3730F029E8230F0396A11DB11D03C094
:100DB0000296A11DB11D2093460180934701909397
:100DC0004801A0934901B0934A0180914B01909151
:100DD0004C01A0914D01B0914E010196A11DB11D94
:100DE00080934B0190934C01A0934D01B0934E0121
:100DF000BF91AF919F918F913F912F910F900FBE17
:100E00000F901F9018953FB7F89480914B019091E7
:100E10004C01A0914D01B0914E0122B708B601FEE0
:100E200005C02F3F19F00196A11DB11D3FBF6627D8
:100E3000782F892F9A2F620F711D811D911D43E01C
:100E4000660F771F881F991F4A95D1F70895089557
:100E5000CF92DF92EF92FF92CF93DF936B017C01F1
:100E6000D2DFEB01C114D104E104F10479F0EFDF2A
:100E7000CADF6C1B7D0B683E7340A0F381E0C81A8B
:100E8000D108E108F108C851DC4FF2CFDF91CF91D2
:100E9000FF90EF90DF90CF9008958330910528F078
:100EA000880F991F04970197F1F708958AB582601A
:100EB0008ABD8AB581608ABD83B7887F836083BF1E
:100EC000789489B7826089BF45DF86B18877866864
:100ED00086B9379A0895813031F48AB58F778ABD03
:100EE0008AB58F7B07C0823039F48AB58F7D8ABD81
:100EF0008AB58F7E8ABD0895833039F480B78F7D9F
:100F000080BF80B78F7E80BF0895843031F48CB568
:100F10008F7D8CBD8CB58F7E8CBD0895CF93DF9374
:100F200087FF0FC08F7741F0813041F0823041F070
:100F3000833039F08FEF05C085E003C082E001C047
:100F400084E090E0FC01EC5DFE4F2491FC01E65D45
:100F5000FE4F8491882349F190E0880F991FFC018E
:100F6000E45CFE4FA591B4918A5C9E4FFC01C59153
:100F7000D4919FB7611108C0F8948C912095822379
:100F80008C93888182230AC0623051F4F8948C914A
:100F9000322F309583238C938881822B888304C0E1
:100FA000F8948C91822B8C939FBFDF91CF91089501
:100FB0000F931F93CF93DF931F92CDB7DEB787FFB9
:100FC0000FC08F7741F0813041F0823041F08330A3
:100FD00039F08FEF05C085E003C082E001C084E0F6
:100FE000282F30E0F901E25EFE4F8491F901EC5DBB
:100FF000FE4F1491F901E65DFE4F04910023D1F0FC
:10100000882319F0698367DF6981E02FF0E0EE0F34
:10101000FF1FEA5CFE4FA591B4919FB7611105C017
:10102000F8948C911095812303C0F8948C91812BB6
:101030008C939FBF0F90DF91CF911F910F910895D7
:1010400081B781BF33DFA4D896D9FECF0CD00FC1B2
:1010500007D140F0FED030F021F45F3F19F0F0C02E
:10106000511139C1F3C014D198F39923C9F3552311
:10107000B1F3951B550BBB27AA276217730784078B
:1010800038F09F5F5F4F220F331F441FAA1FA9F341
:1010900033D00E2E3AF0E0E830D091505040E69533
:1010A000001CCAF729D0FE2F27D0660F771F881F94
:1010B000BB1F261737074807AB07B0E809F0BB0B83
:1010C000802DBF01FF2793585F4F2AF09E3F5105A7
:1010D00068F0B6C000C15F3FECF3983EDCF3869544
:1010E00077956795B795F7959F5FC9F7880F911D1D
:1010F0009695879597F90895E1E0660F771F881F09
:10110000BB1F621773078407BA0720F0621B730BBB
:10111000840BBA0BEE1F88F7E095089504D068940D
:10112000B111D9C00895BCD088F09F5790F0B92F65
:101130009927B751A0F0D1F0660F771F881F991F2C
:101140001AF0BA95C9F712C0B13081F0C3D0B1E03E
:101150000895C0C0672F782F8827B85F39F0B93F4E
:10116000CCF3869577956795B395D9F73EF490952E
:101170008095709561957F4F8F4F9F4F0895E894AC
:1011800009C097FB3EF490958095709561957F4FCF
:101190008F4F9F4F9923A9F0F92F96E9BB2793957D
:1011A000F695879577956795B795F111F8CFFAF48D
:1011B000BB0F11F460FF1BC06F5F7F4F8F4F9F4FBE
:1011C00016C0882311F096E911C0772321F09EE81C
:1011D000872F762F05C0662371F096E8862F70E082
:1011E00060E02AF09A95660F771F881FDAF7880F5C
:1011F0009695879597F90895990F0008550FAA0BB2
:10120000E0E8FEEF16161706E807F907C0F0121619
:101210001306E407F50798F0621B730B840B950B1C
:1012200039F40A2661F0232B242B252B21F4089571
:101230000A2609F4A140A6958FEF811D811D08950E
:1012400097F99F6780E870E060E008959FEF80EC79
:10125000089500240A94161617061806090608951C
:1012600000240A9412161306140605060895092E82
:101270000394000C11F4882352F0BB0F40F4BF2BF1
:1012800011F460FF04C06F5F7F4F8F4F9F4F089531
:1012900057FD9058440F551F59F05F3F71F0479527
:1012A000880F97FB991F61F09F3F79F0879508950C
:1012B000121613061406551FF2CF4695F1DF08C02B
:1012C000161617061806991FF1CF86957105610548
:1012D00008940895E894BB2766277727CB0197F9F0
:1012E00008950AD0C4CFB5DF28F0BADF18F09523EF
:1012F00009F0A6CFABCFEFCFCBDFA8F39923D9F37B
:101300005523C9F3950F50E0551FAA27EE27FF2755
:10131000BB2700240894679520F4E20FF31FB41F45
:101320000A1E220F331F441FAA1F6695A9F777953F
:1013300030F4F30FB41F0A1E121E08F46395330F26
:10134000441FAA1F221F769599F7879520F4B40FA2
:101350000A1E121E631F440FAA1F221F331F8695E9
:10136000A9F7862F712D602D11249F5750408AF0C8
:10137000E1F088234AF0EE0FFF1FBB1F661F771FA7
:10138000881F91505040A9F79E3F510570F058CFEB
:10139000A2CF5F3FECF3983EDCF386957795679597
:1013A000B795F795E7959F5FC1F7FE2B880F911DC5
:1013B0009695879597F908951FDF880B990B0895E7
:1013C000002480FD060E660F11F08695D1F7802D62
:1013D000089597FB072E16F4009406D077FD08D0E9
:1013E00049D007FC05D03EF4909581959F4F089514
:1013F000709561957F4F0895A1E21A2EAA1BBB1B21
:10140000FD010DC0AA1FBB1FEE1FFF1FA217B307D0
:10141000E407F50720F0A21BB30BE40BF50B661FE6
:10142000771F881F991F1A9469F7609570958095AA
:1014300090959B01AC01BD01CF010895052E97FB4E
:1014400016F400940FD057FD05D0D6DF07FC02D06C
:1014500046F408C050954095309521953F4F4F4F29
:101460005F4F089590958095709561957F4F8F4F50
:101470009F4F0895AA1BBB1B51E107C0AA1FBB1FAA
:10148000A617B70710F0A61BB70B881F991F5A9510
:10149000A9F780959095BC01CD010895EE0FFF1F2F
:1014A0000590F491E02D0994AEE0B0E0E9E5FAE0B2
:1014B00093C20D891E8986E08C831A8309838FEF7E
:1014C0009FE79E838D83AE01475E5F4F6F89788D66
:1014D000CE01019608D0EF81F885E00FF11F108250
:1014E0002E96E4E095C2ACE0B0E0E8E7FAE066C230
:1014F0007C016B018A01FC0117821682838181FFC6
:10150000B0C1CE0101964C01F7019381F60193FD24
:10151000859193FF81916F01882309F49EC18532E3
:1015200039F493FD859193FF81916F01853221F408
:10153000B70190E0B1D1E8CF512C312C20E020321E
:10154000A0F48B3269F030F4803259F0833269F4C0
:1015500020612CC08D3239F0803339F4216026C0EF
:101560002260246023C0286021C027FD27C030ED01
:10157000380F3A3078F426FF06C0852D6AE020DF68
:10158000582E530E13C0832D6AE01ADF382E330E07
:1015900020620CC08E3221F426FD5FC1206406C09B
:1015A0008C3611F4206802C0883641F4F60193FDB0
:1015B000859193FF81916F018111C1CF982F9F7DFC
:1015C0009554933028F40C5F1F4FFFE3F9830DC04F
:1015D000833631F0833771F0833509F057C021C06D
:1015E000F801808189830E5F1F4F44244394512C5E
:1015F000540114C03801F2E06F0E711CF801A08094
:10160000B18026FF03C0652D70E002C06FEF7FEF51
:10161000C5012C8736D12C0183012C852F77222EF2
:1016200016C03801F2E06F0E711CF801A080B18085
:1016300026FF03C0652D70E002C06FEF7FEFC5018C
:101640002C8714D12C012C852068222E830123FCA9
:1016500019C0832D90E048165906A0F4B70180E226
:1016600090E01AD13A94F5CFF50127FC859127FE39
:1016700081915F01B70190E00FD131103A94F1E010
:101680004F1A51084114510479F7DEC0843611F025
:10169000893631F5F80127FF07C0608171818281A9
:1016A00093810C5F1F4F08C060817181882777FD8F
:1016B0008095982F0E5F1F4F2F76B22E97FF09C08F
:1016C00090958095709561957F4F8F4F9F4F2068C3
:1016D000B22E2AE030E0A40111D1A82EA81843C0F0
:1016E000853729F42F7EB22E2AE030E025C0F22F74
:1016F000F97FBF2E8F36C1F018F4883579F0ADC070
:10170000803719F0883721F0A8C02F2F2061B22E22
:10171000B4FE0DC08B2D8460B82E09C024FF0AC012
:101720009F2F9660B92E06C028E030E005C020E16A
:1017300030E002C020E132E0F801B7FE07C060816E
:101740007181828193810C5F1F4F06C0608171811E
:1017500080E090E00E5F1F4FA401D0D0A82EA81803
:10176000FB2DFF77BF2EB6FE0BC02B2D2E7FA514B1
:1017700050F4B4FE0AC0B2FC08C02B2D2E7E05C06A
:101780007A2C2B2D03C07A2C01C0752C24FF0DC0A0
:10179000FE01EA0DF11D8081803311F4297E09C01C
:1017A00022FF06C07394739404C0822F867809F0D8
:1017B000739423FD12C020FF06C05A2C731418F432
:1017C000530C5718732C731460F4B70180E290E047
:1017D0002C8762D073942C85F6CF731410F43718CD
:1017E00001C0312C24FF11C0B70180E390E02C87A9
:1017F00053D02C8522FF16C021FF03C088E590E05E
:1018000002C088E790E0B7010CC0822F867851F0C3
:1018100021FD02C080E201C08BE227FD8DE2B7010D
:1018200090E03AD0A51430F4B70180E390E034D0D2
:101830005A94F8CFAA94F401EA0DF11D8081B70102
:1018400090E02AD0A110F6CF332009F45DCEB70185
:1018500080E290E021D03A94F7CFF701868197811A
:1018600002C08FEF9FEF2C96E2E1C4C0FC0105900F
:10187000615070400110D8F7809590958E0F9F1F92
:101880000895FC016150704001900110D8F78095D7
:1018900090958E0F9F1F08950F931F93CF93DF9303
:1018A000182F092FEB018B8181FD03C08FEF9FEF74
:1018B00020C082FF10C04E815F812C813D81421784
:1018C00053077CF4E881F9819F012F5F3F4F3983F3
:1018D0002883108306C0E885F985812F0995892B17
:1018E00029F72E813F812F5F3F4F3F832E83812F2A
:1018F000902FDF91CF911F910F910895FA01AA27A0
:10190000283061F1203191F1E8946F936E7F6E5F22
:101910007F4F8F4F9F4FAF4FB1E040D0B4E03ED0EC
:10192000670F781F891F9A1FA11D680F791F8A1FD3
:10193000911DA11D6A0F711D811D911DA11D22D038
:1019400009F468943F91062E000C3019000C000C2D
:101950003019305D3193CEF6CF010895462F477090
:10196000405D4193B3E00FD0C9F7F6CF462F4F70DB
:10197000405D4A3318F0495D31FD4052419302D039
:10198000A9F7EACFB4E0A6959795879577956795DF
:10199000BA95C9F700976105710508959B01AC01DF
:1019A0000A2E06945795479537952795BA95C9F706
:1019B000620F731F841F951FA01D08952F923F92E1
:1019C0004F925F926F927F928F929F92AF92BF924F
:1019D000CF92DF92EF92FF920F931F93CF93DF93FB
:1019E000CDB7DEB7CA1BDB0B0FB6F894DEBF0FBE58
:1019F000CDBF09942A88398848885F846E847D84A5
:101A00008C849B84AA84B984C884DF80EE80FD80A6
:101A10000C811B81AA81B981CE0FD11D0FB6F8941C
:0E1A2000DEBF0FBECDBFED010895F894FFCFDD
:101A2E0000004F018000F401F40114052578000038
:0200000002C03C
:00000001FF
